:1000000012C0189518951895189518951895189563
:100010001895189518951895189518951895189578
:100020001895189518958FED8DBFC0ECE8EB4E2E06
:10003000DD275D2EA89584B7082E877F84BF88E1D1
:10004000992781BD91BDEEE7F0E0A0E6B0E08827FA
:100050008D933197E9F7662474B7777F74BF8EE18B
:1000600081BD86E081BD8FEF87BB80E081BB8BE0E7
:1000700090E0A1E68D939C9384E190E0A3E68D93BC
:100080009C93709165007F777093650080E090E0AD
:10009000A6E68D939C9380E090E0AAE68D939C93D6
:1000A00080E090E0A8E68D939C9370E078BBA8E395
:1000B0008C9180FB80F9809580FBA8E38C9181F97D
:1000C0008C9381E080936000009160000A3010F012
:1000D00009F00DC088B391E0892788BB88EC90E0D7
:1000E00062D1A0E68C918F5F8C9308F4EDCF70E025
:1000F00078BB88EE93E057D181B5886081BDA3E6D7
:100100000D911C91003050E0150709F006C0709168
:1001100065007F7770936500C298819905C084E17E
:1001200090E0A3E68D939C93A3E60D911C91003083
:1001300050E0150714F009F001C002C0A3E623D176
:10014000A3E60D911C91003050E0150780E014F0FB
:1001500009F081E08F93A0E30C9100FB81E00EF0A9
:1001600080E09F918923882309F405C07091650080
:10017000706870936500A3E60D911C91003050E00B
:10018000150714F009F001C026C0A5E68C9187FB85
:1001900081E00EF480E08F93A6E60D911C91003073
:1001A00050E0150781E009F080E09F9189238823C2
:1001B00009F406C085E090E0A6E68D939C93C29872
:1001C000A5E68C9187FB0EF006C085E090E0A6E6E0
:1001D0008D939C93C29AA6E60D911C91003050E03D
:1001E000150714F009F001C002C0A6E6CCD0A6E6BF
:1001F0000D911C91043050E0150709F001C0C09A20
:10020000A6E60D911C91023050E0150709F001C0DF
:10021000C098A1E60D911C91003050E0150714F034
:1002200009F001C008C0A1E60D911C9101501040D9
:10023000A1E60D931C93A1E60D911C91033050E0B3
:10024000150709F001C0C19AA1E60D911C9101307A
:1002500050E0150709F001C0C198A1E60D911C916D
:10026000003050E0150709F005C08BE090E0A1E6F2
:100270008D939C93A0E30C9100FB81E00EF080E055
:100280008F93A8E30C9100FB81E00EF480E09F9136
:100290008923882309F402C0AAE66ED0809905C09C
:1002A00080E090E0AAE68D939C93AAE60D911C91C4
:1002B000083C50E0150709F01DC080E090E0AAE678
:1002C0008D939C9381E080936000009160000A30E0
:1002D00010F009F00EC088B391E0892788BBA8957B
:1002E00084E690E060D0A0E68C918F5F8C9308F458
:1002F000ECCF07C0A89584E690E055D000CFF894E5
:10030000FFCFC098C29A88B392E0892788BBA0E348
:100310000C9100FB81E00EF080E08F93A8E60D9138
:100320001C91003F52ED150780E010F009F081E0CC
:100330009F91892B882309F416C0C1988BE090E027
:10034000A1E68D939C9380E090E0A8E68D939C932A
:1003500084E190E0A3E68D939C93709165007068B2
:1003600070936500CCCEA8E607D0A89584E690E00F
:100370001AD0C7CFF894FFCFED91FC91EF5FFF4FFC
:10038000FC93EE930895ED91FC91E150F040FC93C5
:10039000EE9308953197F1F70895689462F80895FF
:1003A000E89462F80895EF93FF93EE27E82BE92B8A
:1003B00031F0E0EDF7E03197F1F70197D1F7FF91D8
:0403C000EF9108951C
:00000001FF
